{
    "contractName": "TablicaAukcyjna",
    "abi": [
        {
            "anonymous": false,
            "inputs": [
                {
                    "indexed": true,
                    "internalType": "uint256",
                    "name": "id",
                    "type": "uint256"
                },
                {
                    "indexed": true,
                    "internalType": "address",
                    "name": "autor",
                    "type": "address"
                },
                {
                    "indexed": false,
                    "internalType": "string",
                    "name": "tresc",
                    "type": "string"
                }
            ],
            "name": "DodanoOgloszenie",
            "type": "event"
        },
        {
            "anonymous": false,
            "inputs": [
                {
                    "indexed": true,
                    "internalType": "uint256",
                    "name": "id",
                    "type": "uint256"
                },
                {
                    "indexed": true,
                    "internalType": "address",
                    "name": "licytant",
                    "type": "address"
                },
                {
                    "indexed": false,
                    "internalType": "uint256",
                    "name": "kwota",
                    "type": "uint256"
                }
            ],
            "name": "NowaOferta",
            "type": "event"
        },
        {
            "inputs": [
                {
                    "internalType": "string",
                    "name": "tresc",
                    "type": "string"
                }
            ],
            "name": "dodajOgloszenie",
            "outputs": [],
            "stateMutability": "nonpayable",
            "type": "function"
        },
        {
            "inputs": [],
            "name": "licznik",
            "outputs": [
                {
                    "internalType": "uint256",
                    "name": "",
                    "type": "uint256"
                }
            ],
            "stateMutability": "view",
            "type": "function"
        },
        {
            "inputs": [
                {
                    "internalType": "address",
                    "name": "",
                    "type": "address"
                }
            ],
            "name": "oczekujaceZwroty",
            "outputs": [
                {
                    "internalType": "uint256",
                    "name": "",
                    "type": "uint256"
                }
            ],
            "stateMutability": "view",
            "type": "function"
        },
        {
            "inputs": [],
            "name": "odbierzZwrot",
            "outputs": [],
            "stateMutability": "nonpayable",
            "type": "function"
        },
        {
            "inputs": [
                {
                    "internalType": "uint256",
                    "name": "",
                    "type": "uint256"
                }
            ],
            "name": "ogloszenia",
            "outputs": [
                {
                    "internalType": "address",
                    "name": "autor",
                    "type": "address"
                },
                {
                    "internalType": "string",
                    "name": "tresc",
                    "type": "string"
                },
                {
                    "internalType": "uint256",
                    "name": "highestBid",
                    "type": "uint256"
                },
                {
                    "internalType": "address",
                    "name": "highestBidder",
                    "type": "address"
                }
            ],
            "stateMutability": "view",
            "type": "function"
        },
        {
            "inputs": [
                {
                    "internalType": "uint256",
                    "name": "id",
                    "type": "uint256"
                }
            ],
            "name": "pobierz",
            "outputs": [
                {
                    "internalType": "address",
                    "name": "autor",
                    "type": "address"
                },
                {
                    "internalType": "string",
                    "name": "tresc",
                    "type": "string"
                },
                {
                    "internalType": "uint256",
                    "name": "highestBid",
                    "type": "uint256"
                },
                {
                    "internalType": "address",
                    "name": "highestBidder",
                    "type": "address"
                }
            ],
            "stateMutability": "view",
            "type": "function"
        },
        {
            "inputs": [
                {
                    "internalType": "uint256",
                    "name": "id",
                    "type": "uint256"
                }
            ],
            "name": "wyplacWygrana",
            "outputs": [],
            "stateMutability": "nonpayable",
            "type": "function"
        },
        {
            "inputs": [
                {
                    "internalType": "uint256",
                    "name": "id",
                    "type": "uint256"
                }
            ],
            "name": "zalicytuj",
            "outputs": [],
            "stateMutability": "payable",
            "type": "function"
        }
    ],
    "bytecode": "6080806040523461001657610a67908161001c8239f35b600080fdfe608060408181526004908136101561001657600080fd5b600092833560e01c9081627303a4146108025750806301110f76146107b0578063124d6eef146107765780632e8eab63146106ec5780639639341b1461054a5780639d79a731146103c1578063c2cf60a4146103475763fd9446501461007b57600080fd5b3461033b57602091826003193601126103435780359067ffffffffffffffff9081831161033f573660238401121561033f578583820135936100bc856109c6565b946100c98751968761088c565b808652366024828401011161033b5780602489930183880137850101528251156102f857855460001992908381146102e5576001019283885585519161010e8361085a565b338352878301868152878401918a835260608501968b88528b5260018a52888b209360018060a01b0380965116966001600160601b0360a01b97888754161786556001860193519081519384116102d257508c8c61016c8654610820565b601f8111610298575b5050508b908d601f851160011461020557936101f49a9896936003969382937fec75b509003b8ef19c9bb0a247243ae80fe4320b538a5b41e955352ebbf29f229e9c9a97936101fa575b50508260011b92871b1c19161790555b5160028201550192511690825416179055855493519182918683523396830190610954565b0390a380f35b0151915038806101bf565b8581528d812093929190601f198616908f5b828210610281575050936003969360019387937fec75b509003b8ef19c9bb0a247243ae80fe4320b538a5b41e955352ebbf29f229f9d9b986101f49f9d9b981061026a575b50505050811b0190556101cf565b01519060f8848a1b161c191690553880808061025c565b60018597829396860151815501960193018f610217565b8183886102c095522090601f870160051c82019287106102c8575b601f0160051c01906109e2565b8c8c38610175565b90915081906102b3565b634e487b7160e01b8e526041905260248dfd5b634e487b7160e01b885260118352602488fd5b835162461bcd60e51b8152908101859052601860248201527f5472657363206e6965206d6f7a652062796320707573746100000000000000006044820152606490fd5b8280fd5b8580fd5b8380fd5b50903461033b57602036600319011261033b57918192358152600160205220906103bd81516103758161085a565b83546001600160a01b03908116825293610391600182016108ae565b948560208401528060036002840154938488870152015416928360608201525116935194859485610994565b0390f35b509060209182600319360112610343578135918215158061053f575b6103e6906109f9565b828552600184528185209060018060a01b038083541633146104f0576002830191825491823411156104bc5782610462575b5050507f16bc95d3e0897c07b291b10bd6028ec659b9e8a925b81c9dace7da5649900a9c929160039134905501336001600160601b0360a01b82541617905551923484523393a380f35b6003850154168852600287528488209081549283018093116104a95750558160037f16bc95d3e0897c07b291b10bd6028ec659b9e8a925b81c9dace7da5649900a9c610418565b634e487b7160e01b895260119052602488fd5b855162461bcd60e51b8152808301899052600e60248201526d5a61206d616c61206f666572746160901b6044820152606490fd5b835162461bcd60e51b8152808301879052602360248201527f4175746f72206f676c6f737a656e6961206e6965206d6f7a65206c696379746f60448201526277616360e81b6064820152608490fd5b5084548311156103dd565b503461033b5760209081600319360112610343578235801515806106e1575b610572906109f9565b84526001825280842080546001600160a01b031633036106aa57600281019081549182156106675786809360006001839584809655600381016001600160601b0360a01b8154169055016105c68154610820565b601f8111610649575b5055335af13d15610644573d6105e4816109c6565b906105f18451928361088c565b815285843d92013e5b15610603578380f35b5162461bcd60e51b815291820152601860248201527f5779706c617461206e696520706f77696f646c61207369650000000000000000604482015260649150fd5b6105fa565b81855289852061066191601f0160051c8101906109e2565b386105cf565b835162461bcd60e51b8152808701869052601760248201527f4272616b2073726f646b6f7720646f207779706c6174790000000000000000006044820152606490fd5b505162461bcd60e51b81529182015260126024820152714e6965206a6573746573206175746f72656d60701b604482015260649150fd5b508454811115610569565b50903461033b578260031936011261033b5733835260026020528183205490811561073a57508280808093338252600260205281868120553382f115610730575080f35b51903d90823e3d90fd5b606490602084519162461bcd60e51b835282015260166024820152754272616b2073726f646b6f7720646f207a77726f747560501b6044820152fd5b50903461033b57602036600319011261033b57356001600160a01b0381169081900361033b57828291602094526002845220549051908152f35b50903461033b57602036600319011261033b579181923581526001602052206103bd60018060a01b039283835416926107eb600182016108ae565b946003600283015492015416915194859485610994565b84903461081c578160031936011261081c57602091548152f35b5080fd5b90600182811c92168015610850575b602083101461083a57565b634e487b7160e01b600052602260045260246000fd5b91607f169161082f565b6080810190811067ffffffffffffffff82111761087657604052565b634e487b7160e01b600052604160045260246000fd5b90601f8019910116810190811067ffffffffffffffff82111761087657604052565b90604051918260008254926108c284610820565b90818452600194858116908160001461093157506001146108ee575b50506108ec9250038361088c565b565b9093915060005260209081600020936000915b8183106109195750506108ec935082010138806108de565b85548884018501529485019487945091830191610901565b9150506108ec94506020925060ff191682840152151560051b82010138806108de565b919082519283825260005b848110610980575050826000602080949584010152601f8019910116010190565b60208183018101518483018201520161095f565b9294936109ba60609360018060a01b038094168652608060208701526080860190610954565b95604085015216910152565b67ffffffffffffffff811161087657601f01601f191660200190565b8181106109ed575050565b600081556001016109e2565b15610a0057565b60405162461bcd60e51b8152602060048201526009602482015268109b19591b9e48125160ba1b6044820152606490fdfea2646970667358221220fb91a1c9495d5f1e6c06a7fd8e210177864b979484cf03eca735e00deec3bc0964736f6c63430008120033",
    "sourcePath": "c:/Users/adico/OneDrive - Politechnika Śląska/Pulpit/Studia/Github/BKiZA-Smart-Contract/contracts/TablicaAukcyjna.sol",
    "compiler": {
        "name": "solc",
        "version": "0.8.18+commit.87f61d96"
    },
    "functionHashes": {
        "dodajOgloszenie(string)": "fd944650",
        "licznik()": "007303a4",
        "oczekujaceZwroty(address)": "124d6eef",
        "odbierzZwrot()": "2e8eab63",
        "ogloszenia(uint256)": "01110f76",
        "pobierz(uint256)": "c2cf60a4",
        "wyplacWygrana(uint256)": "9639341b",
        "zalicytuj(uint256)": "9d79a731"
    },
    "gasEstimates": {
        "creation": {
            "codeDepositCost": "532600",
            "executionCost": "576",
            "totalCost": "533176"
        },
        "external": {
            "dodajOgloszenie(string)": "infinite",
            "licznik()": "2268",
            "oczekujaceZwroty(address)": "2434",
            "odbierzZwrot()": "infinite",
            "ogloszenia(uint256)": "infinite",
            "pobierz(uint256)": "infinite",
            "wyplacWygrana(uint256)": "infinite",
            "zalicytuj(uint256)": "81409"
        }
    }
}