{
  "_format": "hh-sol-artifact-1",
  "contractName": "Dowcipy",
  "sourceName": "contracts/Dowcipy.sol",
  "abi": [
    {
      "inputs": [],
      "stateMutability": "nonpayable",
      "type": "constructor"
    },
    {
      "anonymous": false,
      "inputs": [
        {
          "indexed": true,
          "internalType": "uint256",
          "name": "_idDowcipu",
          "type": "uint256"
        },
        {
          "indexed": true,
          "internalType": "uint256",
          "name": "ocena",
          "type": "uint256"
        }
      ],
      "name": "zdarzenieOcenionoDowcip",
      "type": "event"
    },
    {
      "inputs": [
        {
          "internalType": "string",
          "name": "_tresc",
          "type": "string"
        }
      ],
      "name": "dodajDowcip",
      "outputs": [],
      "stateMutability": "nonpayable",
      "type": "function"
    },
    {
      "inputs": [
        {
          "internalType": "uint256",
          "name": "",
          "type": "uint256"
        }
      ],
      "name": "dowcipy",
      "outputs": [
        {
          "internalType": "uint256",
          "name": "idDowcipu",
          "type": "uint256"
        },
        {
          "internalType": "string",
          "name": "trescDowcipu",
          "type": "string"
        }
      ],
      "stateMutability": "view",
      "type": "function"
    },
    {
      "inputs": [],
      "name": "licznikDowcipow",
      "outputs": [
        {
          "internalType": "uint256",
          "name": "",
          "type": "uint256"
        }
      ],
      "stateMutability": "view",
      "type": "function"
    },
    {
      "inputs": [],
      "name": "licznikOcen",
      "outputs": [
        {
          "internalType": "uint256",
          "name": "",
          "type": "uint256"
        }
      ],
      "stateMutability": "view",
      "type": "function"
    },
    {
      "inputs": [
        {
          "internalType": "uint256",
          "name": "",
          "type": "uint256"
        }
      ],
      "name": "licznikOcenDowcipu",
      "outputs": [
        {
          "internalType": "uint256",
          "name": "",
          "type": "uint256"
        }
      ],
      "stateMutability": "view",
      "type": "function"
    },
    {
      "inputs": [],
      "name": "losowyDowcip",
      "outputs": [
        {
          "internalType": "uint256",
          "name": "id",
          "type": "uint256"
        },
        {
          "internalType": "string",
          "name": "tresc",
          "type": "string"
        }
      ],
      "stateMutability": "view",
      "type": "function"
    },
    {
      "inputs": [],
      "name": "najlepszyDowcip",
      "outputs": [
        {
          "internalType": "uint256",
          "name": "id",
          "type": "uint256"
        },
        {
          "internalType": "string",
          "name": "tresc",
          "type": "string"
        }
      ],
      "stateMutability": "view",
      "type": "function"
    },
    {
      "inputs": [
        {
          "internalType": "uint256",
          "name": "_aktualny",
          "type": "uint256"
        }
      ],
      "name": "nastepnyDowcip",
      "outputs": [
        {
          "internalType": "uint256",
          "name": "id",
          "type": "uint256"
        },
        {
          "internalType": "string",
          "name": "tresc",
          "type": "string"
        }
      ],
      "stateMutability": "view",
      "type": "function"
    },
    {
      "inputs": [
        {
          "internalType": "uint256",
          "name": "_idDowcipu",
          "type": "uint256"
        },
        {
          "internalType": "uint256",
          "name": "_ocena",
          "type": "uint256"
        }
      ],
      "name": "ocenDowcip",
      "outputs": [],
      "stateMutability": "nonpayable",
      "type": "function"
    },
    {
      "inputs": [
        {
          "internalType": "uint256",
          "name": "",
          "type": "uint256"
        }
      ],
      "name": "oceny",
      "outputs": [
        {
          "internalType": "uint256",
          "name": "idDowcipu",
          "type": "uint256"
        },
        {
          "internalType": "address",
          "name": "idUzytkownika",
          "type": "address"
        },
        {
          "internalType": "uint256",
          "name": "ocena",
          "type": "uint256"
        }
      ],
      "stateMutability": "view",
      "type": "function"
    },
    {
      "inputs": [
        {
          "internalType": "uint256",
          "name": "",
          "type": "uint256"
        },
        {
          "internalType": "uint256",
          "name": "",
          "type": "uint256"
        }
      ],
      "name": "ocenyDowcipu",
      "outputs": [
        {
          "internalType": "address",
          "name": "",
          "type": "address"
        }
      ],
      "stateMutability": "view",
      "type": "function"
    },
    {
      "inputs": [
        {
          "internalType": "address",
          "name": "",
          "type": "address"
        },
        {
          "internalType": "uint256",
          "name": "",
          "type": "uint256"
        }
      ],
      "name": "ocenyUzytkownika",
      "outputs": [
        {
          "internalType": "uint256",
          "name": "",
          "type": "uint256"
        }
      ],
      "stateMutability": "view",
      "type": "function"
    },
    {
      "inputs": [
        {
          "internalType": "uint256",
          "name": "_aktualny",
          "type": "uint256"
        }
      ],
      "name": "pobierzDowcip",
      "outputs": [
        {
          "internalType": "uint256",
          "name": "id",
          "type": "uint256"
        },
        {
          "internalType": "string",
          "name": "tresc",
          "type": "string"
        }
      ],
      "stateMutability": "view",
      "type": "function"
    },
    {
      "inputs": [
        {
          "internalType": "address",
          "name": "_a",
          "type": "address"
        },
        {
          "internalType": "uint256",
          "name": "_id",
          "type": "uint256"
        }
      ],
      "name": "pobierzOcene",
      "outputs": [
        {
          "internalType": "uint256",
          "name": "",
          "type": "uint256"
        }
      ],
      "stateMutability": "view",
      "type": "function"
    },
    {
      "inputs": [
        {
          "internalType": "uint256",
          "name": "_aktualny",
          "type": "uint256"
        }
      ],
      "name": "wyliczOceneDowcipu",
      "outputs": [
        {
          "internalType": "uint256",
          "name": "",
          "type": "uint256"
        }
      ],
      "stateMutability": "view",
      "type": "function"
    }
  ],
  "bytecode": "0x60806040523480156200001157600080fd5b506200003c6040518060800160405280605a815260200162001e30605a91396200009660201b60201c565b620000666040518060c00160405280609c815260200162001d94609c91396200009660201b60201c565b620000906040518060800160405280604e815260200162001e8a604e91396200009660201b60201c565b620004e0565b60056000815480929190620000ab906200013c565b919050555060405180604001604052806005548152602001828152506000806005548152602001908152602001600020600082015181600001556020820151816001019081620000fc9190620003f9565b5090505050565b7f4e487b7100000000000000000000000000000000000000000000000000000000600052601160045260246000fd5b6000819050919050565b6000620001498262000132565b91507fffffffffffffffffffffffffffffffffffffffffffffffffffffffffffffffff82036200017e576200017d62000103565b5b600182019050919050565b600081519050919050565b7f4e487b7100000000000000000000000000000000000000000000000000000000600052604160045260246000fd5b7f4e487b7100000000000000000000000000000000000000000000000000000000600052602260045260246000fd5b600060028204905060018216806200020b57607f821691505b602082108103620002215762000220620001c3565b5b50919050565b60008190508160005260206000209050919050565b60006020601f8301049050919050565b600082821b905092915050565b6000600883026200028b7fffffffffffffffffffffffffffffffffffffffffffffffffffffffffffffffff826200024c565b6200029786836200024c565b95508019841693508086168417925050509392505050565b6000819050919050565b6000620002da620002d4620002ce8462000132565b620002af565b62000132565b9050919050565b6000819050919050565b620002f683620002b9565b6200030e6200030582620002e1565b84845462000259565b825550505050565b600090565b6200032562000316565b62000332818484620002eb565b505050565b5b818110156200035a576200034e6000826200031b565b60018101905062000338565b5050565b601f821115620003a957620003738162000227565b6200037e846200023c565b810160208510156200038e578190505b620003a66200039d856200023c565b83018262000337565b50505b505050565b600082821c905092915050565b6000620003ce60001984600802620003ae565b1980831691505092915050565b6000620003e98383620003bb565b9150826002028217905092915050565b620004048262000189565b67ffffffffffffffff81111562000420576200041f62000194565b5b6200042c8254620001f2565b620004398282856200035e565b600060209050601f8311600181146200047157600084156200045c578287015190505b620004688582620003db565b865550620004d8565b601f198416620004818662000227565b60005b82811015620004ab5784890151825560018201915060208501945060208101905062000484565b86831015620004cb5784890151620004c7601f891682620003bb565b8355505b6001600288020188555050505b505050505050565b6118a480620004f06000396000f3fe608060405234801561001057600080fd5b50600436106100f55760003560e01c806344597a70116100975780638dfadb60116100665780638dfadb60146102b45780639261e6dd146102e45780639b5bcdfc14610314578063b09630ec14610330576100f5565b806344597a70146102185780635541acdc146102485780635722b9591461027857806377a2e67714610296576100f5565b80631d8d9bb4116100d35780631d8d9bb41461017c578063245fe33514610198578063368948ac146101c85780633eb2f11d146101f9576100f5565b8063064c0422146100fa578063074556981461012c5780630a41c4221461015d575b600080fd5b610114600480360381019061010f9190610e4a565b610361565b60405161012393929190610ec7565b60405180910390f35b61014660048036038101906101419190610e4a565b6103ab565b604051610154929190610f8e565b60405180910390f35b610165610457565b604051610173929190610f8e565b60405180910390f35b61019660048036038101906101919190610fbe565b610566565b005b6101b260048036038101906101ad9190610fbe565b61087f565b6040516101bf9190610ffe565b60405180910390f35b6101e260048036038101906101dd9190610e4a565b6108c1565b6040516101f0929190610f8e565b60405180910390f35b610201610985565b60405161020f929190610f8e565b60405180910390f35b610232600480360381019061022d9190610e4a565b610a8e565b60405161023f9190611019565b60405180910390f35b610262600480360381019061025d9190611060565b610aa6565b60405161026f9190611019565b60405180910390f35b610280610b01565b60405161028d9190611019565b60405180910390f35b61029e610b07565b6040516102ab9190611019565b60405180910390f35b6102ce60048036038101906102c99190610e4a565b610b0d565b6040516102db9190611019565b60405180910390f35b6102fe60048036038101906102f99190611060565b610c8f565b60405161030b9190611019565b60405180910390f35b61032e600480360381019061032991906111d5565b610cb4565b005b61034a60048036038101906103459190610e4a565b610d1d565b604051610358929190610f8e565b60405180910390f35b60016020528060005260406000206000915090508060000154908060010160009054906101000a900473ffffffffffffffffffffffffffffffffffffffff16908060020154905083565b60006020528060005260406000206000915090508060000154908060010180546103d49061124d565b80601f01602080910402602001604051908101604052809291908181526020018280546104009061124d565b801561044d5780601f106104225761010080835404028352916020019161044d565b820191906000526020600020905b81548152906001019060200180831161043057829003601f168201915b5050505050905082565b6000606060006001600554423343604051602001610477939291906112e7565b6040516020818303038152906040528051906020012060001c61049a9190611353565b6104a491906113b3565b9050600080828152602001908152602001600020600001546000808381526020019081526020016000206001018080546104dd9061124d565b80601f01602080910402602001604051908101604052809291908181526020018280546105099061124d565b80156105565780601f1061052b57610100808354040283529160200191610556565b820191906000526020600020905b81548152906001019060200180831161053957829003601f168201915b5050505050905092509250509091565b60008211801561057857506005548211155b6105b7576040517f08c379a00000000000000000000000000000000000000000000000000000000081526004016105ae90611459565b60405180910390fd5b600181101580156105c9575060068111155b610608576040517f08c379a00000000000000000000000000000000000000000000000000000000081526004016105ff906114c5565b60405180910390fd5b6000600260003373ffffffffffffffffffffffffffffffffffffffff1673ffffffffffffffffffffffffffffffffffffffff1681526020019081526020016000206000848152602001908152602001600020541461069b576040517f08c379a000000000000000000000000000000000000000000000000000000000815260040161069290611557565b60405180910390fd5b600660008154809291906106ae90611577565b919050555060405180606001604052808381526020013373ffffffffffffffffffffffffffffffffffffffff168152602001828152506001600060065481526020019081526020016000206000820151816000015560208201518160010160006101000a81548173ffffffffffffffffffffffffffffffffffffffff021916908373ffffffffffffffffffffffffffffffffffffffff16021790555060408201518160020155905050600654600260003373ffffffffffffffffffffffffffffffffffffffff1673ffffffffffffffffffffffffffffffffffffffff1681526020019081526020016000206000848152602001908152602001600020819055506004600083815260200190815260200160002060008154809291906107d290611577565b9190505550336003600084815260200190815260200160002060006004600086815260200190815260200160002054815260200190815260200160002060006101000a81548173ffffffffffffffffffffffffffffffffffffffff021916908373ffffffffffffffffffffffffffffffffffffffff16021790555080827fed9a029950091e66ba32d3872bcbd13c6941040d359753d0eddb9be2aa261db760405160405180910390a35050565b60036020528160005260406000206020528060005260406000206000915091509054906101000a900473ffffffffffffffffffffffffffffffffffffffff1681565b60006060600080848152602001908152602001600020600001546000808581526020019081526020016000206001018080546108fc9061124d565b80601f01602080910402602001604051908101604052809291908181526020018280546109289061124d565b80156109755780601f1061094a57610100808354040283529160200191610975565b820191906000526020600020905b81548152906001019060200180831161095857829003601f168201915b5050505050905091509150915091565b600060606000806000600190505b60055481116109cc5760006109a782610b0d565b9050828111156109b8578092508193505b5080806109c490611577565b915050610993565b5060008083815260200190815260200160002060000154600080848152602001908152602001600020600101808054610a049061124d565b80601f0160208091040260200160405190810160405280929190818152602001828054610a309061124d565b8015610a7d5780601f10610a5257610100808354040283529160200191610a7d565b820191906000526020600020905b815481529060010190602001808311610a6057829003601f168201915b505050505090509350935050509091565b60046020528060005260406000206000915090505481565b6000600260008473ffffffffffffffffffffffffffffffffffffffff1673ffffffffffffffffffffffffffffffffffffffff168152602001908152602001600020600083815260200190815260200160002054905092915050565b60065481565b60055481565b600080600080600080600190505b60046000888152602001908152602001600020548111610c615760036000888152602001908152602001600020600082815260200190815260200160002060009054906101000a900473ffffffffffffffffffffffffffffffffffffffff169250600073ffffffffffffffffffffffffffffffffffffffff168373ffffffffffffffffffffffffffffffffffffffff1614610c4e57600260008473ffffffffffffffffffffffffffffffffffffffff1673ffffffffffffffffffffffffffffffffffffffff1681526020019081526020016000206000888152602001908152602001600020549150600082118015610c1557506006548211155b15610c4d57600160008381526020019081526020016000206002015485610c3c91906113b3565b94508380610c4990611577565b9450505b5b8080610c5990611577565b915050610b1b565b5060008303610c77576000945050505050610c8a565b8284610c8391906115bf565b9450505050505b919050565b6002602052816000526040600020602052806000526040600020600091509150505481565b60056000815480929190610cc790611577565b919050555060405180604001604052806005548152602001828152506000806005548152602001908152602001600020600082015181600001556020820151816001019081610d16919061179c565b5090505050565b600060606000600160055485610d339190611353565b610d3d91906113b3565b905060008082815260200190815260200160002060000154600080838152602001908152602001600020600101808054610d769061124d565b80601f0160208091040260200160405190810160405280929190818152602001828054610da29061124d565b8015610def5780601f10610dc457610100808354040283529160200191610def565b820191906000526020600020905b815481529060010190602001808311610dd257829003601f168201915b505050505090509250925050915091565b6000604051905090565b600080fd5b600080fd5b6000819050919050565b610e2781610e14565b8114610e3257600080fd5b50565b600081359050610e4481610e1e565b92915050565b600060208284031215610e6057610e5f610e0a565b5b6000610e6e84828501610e35565b91505092915050565b610e8081610e14565b82525050565b600073ffffffffffffffffffffffffffffffffffffffff82169050919050565b6000610eb182610e86565b9050919050565b610ec181610ea6565b82525050565b6000606082019050610edc6000830186610e77565b610ee96020830185610eb8565b610ef66040830184610e77565b949350505050565b600081519050919050565b600082825260208201905092915050565b60005b83811015610f38578082015181840152602081019050610f1d565b60008484015250505050565b6000601f19601f8301169050919050565b6000610f6082610efe565b610f6a8185610f09565b9350610f7a818560208601610f1a565b610f8381610f44565b840191505092915050565b6000604082019050610fa36000830185610e77565b8181036020830152610fb58184610f55565b90509392505050565b60008060408385031215610fd557610fd4610e0a565b5b6000610fe385828601610e35565b9250506020610ff485828601610e35565b9150509250929050565b60006020820190506110136000830184610eb8565b92915050565b600060208201905061102e6000830184610e77565b92915050565b61103d81610ea6565b811461104857600080fd5b50565b60008135905061105a81611034565b92915050565b6000806040838503121561107757611076610e0a565b5b60006110858582860161104b565b925050602061109685828601610e35565b9150509250929050565b600080fd5b600080fd5b7f4e487b7100000000000000000000000000000000000000000000000000000000600052604160045260246000fd5b6110e282610f44565b810181811067ffffffffffffffff82111715611101576111006110aa565b5b80604052505050565b6000611114610e00565b905061112082826110d9565b919050565b600067ffffffffffffffff8211156111405761113f6110aa565b5b61114982610f44565b9050602081019050919050565b82818337600083830152505050565b600061117861117384611125565b61110a565b905082815260208101848484011115611194576111936110a5565b5b61119f848285611156565b509392505050565b600082601f8301126111bc576111bb6110a0565b5b81356111cc848260208601611165565b91505092915050565b6000602082840312156111eb576111ea610e0a565b5b600082013567ffffffffffffffff81111561120957611208610e0f565b5b611215848285016111a7565b91505092915050565b7f4e487b7100000000000000000000000000000000000000000000000000000000600052602260045260246000fd5b6000600282049050600182168061126557607f821691505b6020821081036112785761127761121e565b5b50919050565b6000819050919050565b61129961129482610e14565b61127e565b82525050565b60008160601b9050919050565b60006112b78261129f565b9050919050565b60006112c9826112ac565b9050919050565b6112e16112dc82610ea6565b6112be565b82525050565b60006112f38286611288565b60208201915061130382856112d0565b6014820191506113138284611288565b602082019150819050949350505050565b7f4e487b7100000000000000000000000000000000000000000000000000000000600052601260045260246000fd5b600061135e82610e14565b915061136983610e14565b92508261137957611378611324565b5b828206905092915050565b7f4e487b7100000000000000000000000000000000000000000000000000000000600052601160045260246000fd5b60006113be82610e14565b91506113c983610e14565b92508282019050808211156113e1576113e0611384565b5b92915050565b7f446f77636970206f20706f64616e796d206964656e747966696b61746f727a6560008201527f206e6965206973746e69656a6500000000000000000000000000000000000000602082015250565b6000611443602d83610f09565b915061144e826113e7565b604082019050919050565b6000602082019050818103600083015261147281611436565b9050919050565b7f4e696577c58261c59b6369776120776172746fc59bc487206f63656e79000000600082015250565b60006114af601d83610f09565b91506114ba82611479565b602082019050919050565b600060208201905081810360008301526114de816114a2565b9050919050565b7f55c5bc79746b6f776e696b206a75c5bc206f63656e69c5822077796272616e7960008201527f20646f7763697000000000000000000000000000000000000000000000000000602082015250565b6000611541602783610f09565b915061154c826114e5565b604082019050919050565b6000602082019050818103600083015261157081611534565b9050919050565b600061158282610e14565b91507fffffffffffffffffffffffffffffffffffffffffffffffffffffffffffffffff82036115b4576115b3611384565b5b600182019050919050565b60006115ca82610e14565b91506115d583610e14565b9250826115e5576115e4611324565b5b828204905092915050565b60008190508160005260206000209050919050565b60006020601f8301049050919050565b600082821b905092915050565b6000600883026116527fffffffffffffffffffffffffffffffffffffffffffffffffffffffffffffffff82611615565b61165c8683611615565b95508019841693508086168417925050509392505050565b6000819050919050565b600061169961169461168f84610e14565b611674565b610e14565b9050919050565b6000819050919050565b6116b38361167e565b6116c76116bf826116a0565b848454611622565b825550505050565b600090565b6116dc6116cf565b6116e78184846116aa565b505050565b5b8181101561170b576117006000826116d4565b6001810190506116ed565b5050565b601f82111561175057611721816115f0565b61172a84611605565b81016020851015611739578190505b61174d61174585611605565b8301826116ec565b50505b505050565b600082821c905092915050565b600061177360001984600802611755565b1980831691505092915050565b600061178c8383611762565b9150826002028217905092915050565b6117a582610efe565b67ffffffffffffffff8111156117be576117bd6110aa565b5b6117c8825461124d565b6117d382828561170f565b600060209050601f83116001811461180657600084156117f4578287015190505b6117fe8582611780565b865550611866565b601f198416611814866115f0565b60005b8281101561183c57848901518255600182019150602085019450602081019050611817565b868310156118595784890151611855601f891682611762565b8355505b6001600288020188555050505b50505050505056fea26469706673582212201e3f1351f5d314933f07c865fdfa5eea85844e1748e277f5c098f2746f3f307b64736f6c63430008130033437a796d2072c3b3c5bc6e69207369c49920646fc59b77696164637a6f6e7920696e666f726d6174796b206f6420706f637ac485746b756ac4856365676f3f0a506f637ac485746b756ac485637920757761c5bc612c20c5bc652031204b4220746f203130303020422c206120646fc59b77696164637a6f6e79206a6573742070657769656e2c20c5bc652031206b6d20746f2031303234206d2e0a446c61637a65676f20696e666f726d6174796379206d796cc4852048616c6c6f7765656e207a20426fc5bc796d204e61726f647a656e69656d3f0a446c617465676f2c20c5bc65203331204f435420746f203235204445432e0a486f77206d616e792070656f706c652063616e207265616420686578206966206f6e6c7920796f7520616e6420646561642070656f706c652063616e2072656164206865783f0a35373030362e0a",
  "linkReferences": {},
  "deployedLinkReferences": {}
}