{
  "_format": "hh-sol-artifact-1",
  "contractName": "TablicaAukcyjna",
  "sourceName": "contracts/TablicaAukcyjna.sol",
  "abi": [
    {
      "anonymous": false,
      "inputs": [
        {
          "indexed": true,
          "internalType": "uint256",
          "name": "id",
          "type": "uint256"
        },
        {
          "indexed": true,
          "internalType": "address",
          "name": "autor",
          "type": "address"
        },
        {
          "indexed": false,
          "internalType": "string",
          "name": "tresc",
          "type": "string"
        }
      ],
      "name": "DodanoOgloszenie",
      "type": "event"
    },
    {
      "anonymous": false,
      "inputs": [
        {
          "indexed": true,
          "internalType": "uint256",
          "name": "id",
          "type": "uint256"
        },
        {
          "indexed": true,
          "internalType": "address",
          "name": "licytant",
          "type": "address"
        },
        {
          "indexed": false,
          "internalType": "uint256",
          "name": "kwota",
          "type": "uint256"
        }
      ],
      "name": "NowaOferta",
      "type": "event"
    },
    {
      "inputs": [
        {
          "internalType": "string",
          "name": "tresc",
          "type": "string"
        },
        {
          "internalType": "uint256",
          "name": "minimalnaKwota",
          "type": "uint256"
        }
      ],
      "name": "dodajOgloszenie",
      "outputs": [],
      "stateMutability": "nonpayable",
      "type": "function"
    },
    {
      "inputs": [],
      "name": "licznik",
      "outputs": [
        {
          "internalType": "uint256",
          "name": "",
          "type": "uint256"
        }
      ],
      "stateMutability": "view",
      "type": "function"
    },
    {
      "inputs": [
        {
          "internalType": "address",
          "name": "",
          "type": "address"
        }
      ],
      "name": "oczekujaceZwroty",
      "outputs": [
        {
          "internalType": "uint256",
          "name": "",
          "type": "uint256"
        }
      ],
      "stateMutability": "view",
      "type": "function"
    },
    {
      "inputs": [],
      "name": "odbierzZwrot",
      "outputs": [],
      "stateMutability": "nonpayable",
      "type": "function"
    },
    {
      "inputs": [
        {
          "internalType": "uint256",
          "name": "",
          "type": "uint256"
        }
      ],
      "name": "ogloszenia",
      "outputs": [
        {
          "internalType": "address",
          "name": "autor",
          "type": "address"
        },
        {
          "internalType": "string",
          "name": "tresc",
          "type": "string"
        },
        {
          "internalType": "uint256",
          "name": "highestBid",
          "type": "uint256"
        },
        {
          "internalType": "address",
          "name": "highestBidder",
          "type": "address"
        },
        {
          "internalType": "uint256",
          "name": "minimalnaKwota",
          "type": "uint256"
        }
      ],
      "stateMutability": "view",
      "type": "function"
    },
    {
      "inputs": [
        {
          "internalType": "uint256",
          "name": "id",
          "type": "uint256"
        }
      ],
      "name": "pobierz",
      "outputs": [
        {
          "internalType": "address",
          "name": "autor",
          "type": "address"
        },
        {
          "internalType": "string",
          "name": "tresc",
          "type": "string"
        },
        {
          "internalType": "uint256",
          "name": "highestBid",
          "type": "uint256"
        },
        {
          "internalType": "address",
          "name": "highestBidder",
          "type": "address"
        }
      ],
      "stateMutability": "view",
      "type": "function"
    },
    {
      "inputs": [
        {
          "internalType": "uint256",
          "name": "id",
          "type": "uint256"
        }
      ],
      "name": "wyplacWygrana",
      "outputs": [],
      "stateMutability": "nonpayable",
      "type": "function"
    },
    {
      "inputs": [
        {
          "internalType": "uint256",
          "name": "id",
          "type": "uint256"
        }
      ],
      "name": "zalicytuj",
      "outputs": [],
      "stateMutability": "payable",
      "type": "function"
    }
  ],
  "bytecode": "0x608060405234801561001057600080fd5b506119c5806100206000396000f3fe60806040526004361061007a5760003560e01c8063481661941161004e578063481661941461013f5780639639341b146101685780639d79a73114610191578063c2cf60a4146101ad5761007a565b80627303a41461007f57806301110f76146100aa578063124d6eef146100eb5780632e8eab6314610128575b600080fd5b34801561008b57600080fd5b506100946101ed565b6040516100a19190610d0b565b60405180910390f35b3480156100b657600080fd5b506100d160048036038101906100cc9190610d66565b6101f3565b6040516100e2959493929190610e64565b60405180910390f35b3480156100f757600080fd5b50610112600480360381019061010d9190610eea565b6102f1565b60405161011f9190610d0b565b60405180910390f35b34801561013457600080fd5b5061013d610309565b005b34801561014b57600080fd5b506101666004803603810190610161919061104c565b61041f565b005b34801561017457600080fd5b5061018f600480360381019061018a9190610d66565b610636565b005b6101ab60048036038101906101a69190610d66565b6108a1565b005b3480156101b957600080fd5b506101d460048036038101906101cf9190610d66565b610b53565b6040516101e494939291906110a8565b60405180910390f35b60005481565b60016020528060005260406000206000915090508060000160009054906101000a900473ffffffffffffffffffffffffffffffffffffffff169080600101805461023c90611123565b80601f016020809104026020016040519081016040528092919081815260200182805461026890611123565b80156102b55780601f1061028a576101008083540402835291602001916102b5565b820191906000526020600020905b81548152906001019060200180831161029857829003601f168201915b5050505050908060020154908060030160009054906101000a900473ffffffffffffffffffffffffffffffffffffffff16908060040154905085565b60026020528060005260406000206000915090505481565b6000600260003373ffffffffffffffffffffffffffffffffffffffff1673ffffffffffffffffffffffffffffffffffffffff16815260200190815260200160002054905060008111610390576040517f08c379a0000000000000000000000000000000000000000000000000000000008152600401610387906111a0565b60405180910390fd5b6000600260003373ffffffffffffffffffffffffffffffffffffffff1673ffffffffffffffffffffffffffffffffffffffff168152602001908152602001600020819055503373ffffffffffffffffffffffffffffffffffffffff166108fc829081150290604051600060405180830381858888f1935050505015801561041b573d6000803e3d6000fd5b5050565b6000825111610463576040517f08c379a000000000000000000000000000000000000000000000000000000000815260040161045a9061120c565b60405180910390fd5b600081116104a6576040517f08c379a000000000000000000000000000000000000000000000000000000000815260040161049d9061129e565b60405180910390fd5b6000808154809291906104b8906112ed565b91905055506040518060a001604052803373ffffffffffffffffffffffffffffffffffffffff16815260200183815260200160008152602001600073ffffffffffffffffffffffffffffffffffffffff16815260200182815250600160008054815260200190815260200160002060008201518160000160006101000a81548173ffffffffffffffffffffffffffffffffffffffff021916908373ffffffffffffffffffffffffffffffffffffffff160217905550602082015181600101908161058291906114e1565b506040820151816002015560608201518160030160006101000a81548173ffffffffffffffffffffffffffffffffffffffff021916908373ffffffffffffffffffffffffffffffffffffffff160217905550608082015181600401559050503373ffffffffffffffffffffffffffffffffffffffff166000547fec75b509003b8ef19c9bb0a247243ae80fe4320b538a5b41e955352ebbf29f228460405161062a91906115b3565b60405180910390a35050565b60008111801561064857506000548111155b610687576040517f08c379a000000000000000000000000000000000000000000000000000000000815260040161067e90611621565b60405180910390fd5b60006001600083815260200190815260200160002090508060000160009054906101000a900473ffffffffffffffffffffffffffffffffffffffff1673ffffffffffffffffffffffffffffffffffffffff163373ffffffffffffffffffffffffffffffffffffffff1614610730576040517f08c379a00000000000000000000000000000000000000000000000000000000081526004016107279061168d565b60405180910390fd5b6000816002015411610777576040517f08c379a000000000000000000000000000000000000000000000000000000000815260040161076e906116f9565b60405180910390fd5b6000816002015490506000826002018190555060008260030160006101000a81548173ffffffffffffffffffffffffffffffffffffffff021916908373ffffffffffffffffffffffffffffffffffffffff160217905550604051806020016040528060008152508260010190816107ee91906114e1565b5060003373ffffffffffffffffffffffffffffffffffffffff16826040516108159061174a565b60006040518083038185875af1925050503d8060008114610852576040519150601f19603f3d011682016040523d82523d6000602084013e610857565b606091505b505090508061089b576040517f08c379a0000000000000000000000000000000000000000000000000000000008152600401610892906117ab565b60405180910390fd5b50505050565b6000811180156108b357506000548111155b6108f2576040517f08c379a00000000000000000000000000000000000000000000000000000000081526004016108e990611621565b60405180910390fd5b60006001600083815260200190815260200160002090508060000160009054906101000a900473ffffffffffffffffffffffffffffffffffffffff1673ffffffffffffffffffffffffffffffffffffffff163373ffffffffffffffffffffffffffffffffffffffff160361099b576040517f08c379a00000000000000000000000000000000000000000000000000000000081526004016109929061183d565b60405180910390fd5b806002015434116109e1576040517f08c379a00000000000000000000000000000000000000000000000000000000081526004016109d8906118a9565b60405180910390fd5b8060040154341015610a28576040517f08c379a0000000000000000000000000000000000000000000000000000000008152600401610a1f9061193b565b60405180910390fd5b600081600201541115610ab4578060020154600260008360030160009054906101000a900473ffffffffffffffffffffffffffffffffffffffff1673ffffffffffffffffffffffffffffffffffffffff1673ffffffffffffffffffffffffffffffffffffffff1681526020019081526020016000206000828254610aac919061195b565b925050819055505b348160020181905550338160030160006101000a81548173ffffffffffffffffffffffffffffffffffffffff021916908373ffffffffffffffffffffffffffffffffffffffff1602179055503373ffffffffffffffffffffffffffffffffffffffff16827f16bc95d3e0897c07b291b10bd6028ec659b9e8a925b81c9dace7da5649900a9c34604051610b479190610d0b565b60405180910390a35050565b600060606000806000600160008781526020019081526020016000206040518060a00160405290816000820160009054906101000a900473ffffffffffffffffffffffffffffffffffffffff1673ffffffffffffffffffffffffffffffffffffffff1673ffffffffffffffffffffffffffffffffffffffff168152602001600182018054610be090611123565b80601f0160208091040260200160405190810160405280929190818152602001828054610c0c90611123565b8015610c595780601f10610c2e57610100808354040283529160200191610c59565b820191906000526020600020905b815481529060010190602001808311610c3c57829003601f168201915b50505050508152602001600282015481526020016003820160009054906101000a900473ffffffffffffffffffffffffffffffffffffffff1673ffffffffffffffffffffffffffffffffffffffff1673ffffffffffffffffffffffffffffffffffffffff168152602001600482015481525050905080600001518160200151826040015183606001519450945094509450509193509193565b6000819050919050565b610d0581610cf2565b82525050565b6000602082019050610d206000830184610cfc565b92915050565b6000604051905090565b600080fd5b600080fd5b610d4381610cf2565b8114610d4e57600080fd5b50565b600081359050610d6081610d3a565b92915050565b600060208284031215610d7c57610d7b610d30565b5b6000610d8a84828501610d51565b91505092915050565b600073ffffffffffffffffffffffffffffffffffffffff82169050919050565b6000610dbe82610d93565b9050919050565b610dce81610db3565b82525050565b600081519050919050565b600082825260208201905092915050565b60005b83811015610e0e578082015181840152602081019050610df3565b60008484015250505050565b6000601f19601f8301169050919050565b6000610e3682610dd4565b610e408185610ddf565b9350610e50818560208601610df0565b610e5981610e1a565b840191505092915050565b600060a082019050610e796000830188610dc5565b8181036020830152610e8b8187610e2b565b9050610e9a6040830186610cfc565b610ea76060830185610dc5565b610eb46080830184610cfc565b9695505050505050565b610ec781610db3565b8114610ed257600080fd5b50565b600081359050610ee481610ebe565b92915050565b600060208284031215610f0057610eff610d30565b5b6000610f0e84828501610ed5565b91505092915050565b600080fd5b600080fd5b7f4e487b7100000000000000000000000000000000000000000000000000000000600052604160045260246000fd5b610f5982610e1a565b810181811067ffffffffffffffff82111715610f7857610f77610f21565b5b80604052505050565b6000610f8b610d26565b9050610f978282610f50565b919050565b600067ffffffffffffffff821115610fb757610fb6610f21565b5b610fc082610e1a565b9050602081019050919050565b82818337600083830152505050565b6000610fef610fea84610f9c565b610f81565b90508281526020810184848401111561100b5761100a610f1c565b5b611016848285610fcd565b509392505050565b600082601f83011261103357611032610f17565b5b8135611043848260208601610fdc565b91505092915050565b6000806040838503121561106357611062610d30565b5b600083013567ffffffffffffffff81111561108157611080610d35565b5b61108d8582860161101e565b925050602061109e85828601610d51565b9150509250929050565b60006080820190506110bd6000830187610dc5565b81810360208301526110cf8186610e2b565b90506110de6040830185610cfc565b6110eb6060830184610dc5565b95945050505050565b7f4e487b7100000000000000000000000000000000000000000000000000000000600052602260045260246000fd5b6000600282049050600182168061113b57607f821691505b60208210810361114e5761114d6110f4565b5b50919050565b7f4272616b2073726f646b6f7720646f207a77726f747500000000000000000000600082015250565b600061118a601683610ddf565b915061119582611154565b602082019050919050565b600060208201905081810360008301526111b98161117d565b9050919050565b7f5472657363206e6965206d6f7a65206279632070757374610000000000000000600082015250565b60006111f6601883610ddf565b9150611201826111c0565b602082019050919050565b60006020820190508181036000830152611225816111e9565b9050919050565b7f4d696e696d616c6e61206b776f7461206d75736920627963207769656b737a6160008201527f206f642030000000000000000000000000000000000000000000000000000000602082015250565b6000611288602583610ddf565b91506112938261122c565b604082019050919050565b600060208201905081810360008301526112b78161127b565b9050919050565b7f4e487b7100000000000000000000000000000000000000000000000000000000600052601160045260246000fd5b60006112f882610cf2565b91507fffffffffffffffffffffffffffffffffffffffffffffffffffffffffffffffff820361132a576113296112be565b5b600182019050919050565b60008190508160005260206000209050919050565b60006020601f8301049050919050565b600082821b905092915050565b6000600883026113977fffffffffffffffffffffffffffffffffffffffffffffffffffffffffffffffff8261135a565b6113a1868361135a565b95508019841693508086168417925050509392505050565b6000819050919050565b60006113de6113d96113d484610cf2565b6113b9565b610cf2565b9050919050565b6000819050919050565b6113f8836113c3565b61140c611404826113e5565b848454611367565b825550505050565b600090565b611421611414565b61142c8184846113ef565b505050565b5b8181101561145057611445600082611419565b600181019050611432565b5050565b601f8211156114955761146681611335565b61146f8461134a565b8101602085101561147e578190505b61149261148a8561134a565b830182611431565b50505b505050565b600082821c905092915050565b60006114b86000198460080261149a565b1980831691505092915050565b60006114d183836114a7565b9150826002028217905092915050565b6114ea82610dd4565b67ffffffffffffffff81111561150357611502610f21565b5b61150d8254611123565b611518828285611454565b600060209050601f83116001811461154b5760008415611539578287015190505b61154385826114c5565b8655506115ab565b601f19841661155986611335565b60005b828110156115815784890151825560018201915060208501945060208101905061155c565b8683101561159e578489015161159a601f8916826114a7565b8355505b6001600288020188555050505b505050505050565b600060208201905081810360008301526115cd8184610e2b565b905092915050565b7f426c65646e792049440000000000000000000000000000000000000000000000600082015250565b600061160b600983610ddf565b9150611616826115d5565b602082019050919050565b6000602082019050818103600083015261163a816115fe565b9050919050565b7f4e6965206a6573746573206175746f72656d0000000000000000000000000000600082015250565b6000611677601283610ddf565b915061168282611641565b602082019050919050565b600060208201905081810360008301526116a68161166a565b9050919050565b7f4272616b2073726f646b6f7720646f207779706c617479000000000000000000600082015250565b60006116e3601783610ddf565b91506116ee826116ad565b602082019050919050565b60006020820190508181036000830152611712816116d6565b9050919050565b600081905092915050565b50565b6000611734600083611719565b915061173f82611724565b600082019050919050565b600061175582611727565b9150819050919050565b7f5779706c617461206e696520706f77696f646c61207369650000000000000000600082015250565b6000611795601883610ddf565b91506117a08261175f565b602082019050919050565b600060208201905081810360008301526117c481611788565b9050919050565b7f4175746f72206f676c6f737a656e6961206e6965206d6f7a65206c696379746f60008201527f7761630000000000000000000000000000000000000000000000000000000000602082015250565b6000611827602383610ddf565b9150611832826117cb565b604082019050919050565b600060208201905081810360008301526118568161181a565b9050919050565b7f5a61206d616c61206f6665727461000000000000000000000000000000000000600082015250565b6000611893600e83610ddf565b915061189e8261185d565b602082019050919050565b600060208201905081810360008301526118c281611886565b9050919050565b7f4f6665727461206e6965207370656c6e6961206d696e696d616c6e656a206b7760008201527f6f74790000000000000000000000000000000000000000000000000000000000602082015250565b6000611925602383610ddf565b9150611930826118c9565b604082019050919050565b6000602082019050818103600083015261195481611918565b9050919050565b600061196682610cf2565b915061197183610cf2565b9250828201905080821115611989576119886112be565b5b9291505056fea2646970667358221220d59e69ad193cfb7ce6894bff7a6a31b26288de019cddff0c318851b52f339ad164736f6c63430008130033",
  "linkReferences": {},
  "deployedLinkReferences": {}
}