{
  "_format": "hh-sol-artifact-1",
  "contractName": "TablicaAukcyjna",
  "sourceName": "contracts/TablicaAukcyjna.sol",
  "abi": [
    {
      "anonymous": false,
      "inputs": [
        {
          "indexed": true,
          "internalType": "uint256",
          "name": "id",
          "type": "uint256"
        },
        {
          "indexed": true,
          "internalType": "address",
          "name": "zwyciezca",
          "type": "address"
        },
        {
          "indexed": false,
          "internalType": "uint256",
          "name": "kwota",
          "type": "uint256"
        }
      ],
      "name": "AukcjaZakonczona",
      "type": "event"
    },
    {
      "anonymous": false,
      "inputs": [
        {
          "indexed": true,
          "internalType": "uint256",
          "name": "id",
          "type": "uint256"
        },
        {
          "indexed": true,
          "internalType": "address",
          "name": "autor",
          "type": "address"
        },
        {
          "indexed": false,
          "internalType": "string",
          "name": "tresc",
          "type": "string"
        },
        {
          "indexed": false,
          "internalType": "uint256",
          "name": "deadline",
          "type": "uint256"
        }
      ],
      "name": "DodanoOgloszenie",
      "type": "event"
    },
    {
      "anonymous": false,
      "inputs": [
        {
          "indexed": true,
          "internalType": "uint256",
          "name": "id",
          "type": "uint256"
        },
        {
          "indexed": true,
          "internalType": "address",
          "name": "licytant",
          "type": "address"
        },
        {
          "indexed": false,
          "internalType": "uint256",
          "name": "kwota",
          "type": "uint256"
        }
      ],
      "name": "NowaOferta",
      "type": "event"
    },
    {
      "inputs": [
        {
          "internalType": "string",
          "name": "tresc",
          "type": "string"
        },
        {
          "internalType": "uint256",
          "name": "minimalnaKwota",
          "type": "uint256"
        },
        {
          "internalType": "uint256",
          "name": "czasTrwania",
          "type": "uint256"
        }
      ],
      "name": "dodajOgloszenie",
      "outputs": [],
      "stateMutability": "nonpayable",
      "type": "function"
    },
    {
      "inputs": [],
      "name": "licznik",
      "outputs": [
        {
          "internalType": "uint256",
          "name": "",
          "type": "uint256"
        }
      ],
      "stateMutability": "view",
      "type": "function"
    },
    {
      "inputs": [
        {
          "internalType": "address",
          "name": "",
          "type": "address"
        }
      ],
      "name": "oczekujaceZwroty",
      "outputs": [
        {
          "internalType": "uint256",
          "name": "",
          "type": "uint256"
        }
      ],
      "stateMutability": "view",
      "type": "function"
    },
    {
      "inputs": [],
      "name": "odbierzZwrot",
      "outputs": [],
      "stateMutability": "nonpayable",
      "type": "function"
    },
    {
      "inputs": [
        {
          "internalType": "uint256",
          "name": "",
          "type": "uint256"
        }
      ],
      "name": "ogloszenia",
      "outputs": [
        {
          "internalType": "address",
          "name": "autor",
          "type": "address"
        },
        {
          "internalType": "string",
          "name": "tresc",
          "type": "string"
        },
        {
          "internalType": "uint256",
          "name": "highestBid",
          "type": "uint256"
        },
        {
          "internalType": "address",
          "name": "highestBidder",
          "type": "address"
        },
        {
          "internalType": "uint256",
          "name": "minimalnaKwota",
          "type": "uint256"
        },
        {
          "internalType": "uint256",
          "name": "deadline",
          "type": "uint256"
        }
      ],
      "stateMutability": "view",
      "type": "function"
    },
    {
      "inputs": [
        {
          "internalType": "uint256",
          "name": "id",
          "type": "uint256"
        }
      ],
      "name": "pobierz",
      "outputs": [
        {
          "internalType": "address",
          "name": "autor",
          "type": "address"
        },
        {
          "internalType": "string",
          "name": "tresc",
          "type": "string"
        },
        {
          "internalType": "uint256",
          "name": "highestBid",
          "type": "uint256"
        },
        {
          "internalType": "address",
          "name": "highestBidder",
          "type": "address"
        },
        {
          "internalType": "uint256",
          "name": "minimalnaKwota",
          "type": "uint256"
        },
        {
          "internalType": "uint256",
          "name": "deadline",
          "type": "uint256"
        }
      ],
      "stateMutability": "view",
      "type": "function"
    },
    {
      "inputs": [
        {
          "internalType": "uint256",
          "name": "id",
          "type": "uint256"
        }
      ],
      "name": "wyplacWygrana",
      "outputs": [],
      "stateMutability": "nonpayable",
      "type": "function"
    },
    {
      "inputs": [
        {
          "internalType": "uint256",
          "name": "id",
          "type": "uint256"
        }
      ],
      "name": "zalicytuj",
      "outputs": [],
      "stateMutability": "payable",
      "type": "function"
    }
  ],
  "bytecode": "0x608060405234801561001057600080fd5b50611e3a806100206000396000f3fe60806040526004361061007a5760003560e01c806336ef8b231161004e57806336ef8b23146101405780639639341b146101695780639d79a73114610192578063c2cf60a4146101ae5761007a565b80627303a41461007f57806301110f76146100aa578063124d6eef146100ec5780632e8eab6314610129575b600080fd5b34801561008b57600080fd5b506100946101f0565b6040516100a19190610fa1565b60405180910390f35b3480156100b657600080fd5b506100d160048036038101906100cc9190610ffc565b6101f6565b6040516100e3969594939291906110fa565b60405180910390f35b3480156100f857600080fd5b50610113600480360381019061010e919061118e565b6102fa565b6040516101209190610fa1565b60405180910390f35b34801561013557600080fd5b5061013e610312565b005b34801561014c57600080fd5b50610167600480360381019061016291906112f0565b610428565b005b34801561017557600080fd5b50610190600480360381019061018b9190610ffc565b6106ab565b005b6101ac60048036038101906101a79190610ffc565b610a35565b005b3480156101ba57600080fd5b506101d560048036038101906101d09190610ffc565b610d6f565b6040516101e7969594939291906110fa565b60405180910390f35b60005481565b60016020528060005260406000206000915090508060000160009054906101000a900473ffffffffffffffffffffffffffffffffffffffff169080600101805461023f9061138e565b80601f016020809104026020016040519081016040528092919081815260200182805461026b9061138e565b80156102b85780601f1061028d576101008083540402835291602001916102b8565b820191906000526020600020905b81548152906001019060200180831161029b57829003601f168201915b5050505050908060020154908060030160009054906101000a900473ffffffffffffffffffffffffffffffffffffffff16908060040154908060050154905086565b60026020528060005260406000206000915090505481565b6000600260003373ffffffffffffffffffffffffffffffffffffffff1673ffffffffffffffffffffffffffffffffffffffff16815260200190815260200160002054905060008111610399576040517f08c379a00000000000000000000000000000000000000000000000000000000081526004016103909061140b565b60405180910390fd5b6000600260003373ffffffffffffffffffffffffffffffffffffffff1673ffffffffffffffffffffffffffffffffffffffff168152602001908152602001600020819055503373ffffffffffffffffffffffffffffffffffffffff166108fc829081150290604051600060405180830381858888f19350505050158015610424573d6000803e3d6000fd5b5050565b600083511161046c576040517f08c379a000000000000000000000000000000000000000000000000000000000815260040161046390611477565b60405180910390fd5b600082116104af576040517f08c379a00000000000000000000000000000000000000000000000000000000081526004016104a690611509565b60405180910390fd5b600081116104f2576040517f08c379a00000000000000000000000000000000000000000000000000000000081526004016104e99061159b565b60405180910390fd5b600080815480929190610504906115ea565b91905055506040518060c001604052803373ffffffffffffffffffffffffffffffffffffffff16815260200184815260200160008152602001600073ffffffffffffffffffffffffffffffffffffffff168152602001838152602001824261056c9190611632565b815250600160008054815260200190815260200160002060008201518160000160006101000a81548173ffffffffffffffffffffffffffffffffffffffff021916908373ffffffffffffffffffffffffffffffffffffffff16021790555060208201518160010190816105df9190611812565b506040820151816002015560608201518160030160006101000a81548173ffffffffffffffffffffffffffffffffffffffff021916908373ffffffffffffffffffffffffffffffffffffffff1602179055506080820151816004015560a082015181600501559050503373ffffffffffffffffffffffffffffffffffffffff166000547fdd986377bbb35b18d69c1c72c59fca1c750648fb15255456506374836bdd1b3a8584426106909190611632565b60405161069e9291906118e4565b60405180910390a3505050565b6000600160008381526020019081526020016000209050600073ffffffffffffffffffffffffffffffffffffffff168160000160009054906101000a900473ffffffffffffffffffffffffffffffffffffffff1673ffffffffffffffffffffffffffffffffffffffff1603610755576040517f08c379a000000000000000000000000000000000000000000000000000000000815260040161074c90611960565b60405180910390fd5b8060000160009054906101000a900473ffffffffffffffffffffffffffffffffffffffff1673ffffffffffffffffffffffffffffffffffffffff163373ffffffffffffffffffffffffffffffffffffffff16146107e7576040517f08c379a00000000000000000000000000000000000000000000000000000000081526004016107de906119cc565b60405180910390fd5b806005015442101561082e576040517f08c379a000000000000000000000000000000000000000000000000000000000815260040161082590611a38565b60405180910390fd5b6000816002015411610875576040517f08c379a000000000000000000000000000000000000000000000000000000000815260040161086c90611aa4565b60405180910390fd5b60008160020154905060008260030160009054906101000a900473ffffffffffffffffffffffffffffffffffffffff16905060016000858152602001908152602001600020600080820160006101000a81549073ffffffffffffffffffffffffffffffffffffffff02191690556001820160006108f29190610f2b565b60028201600090556003820160006101000a81549073ffffffffffffffffffffffffffffffffffffffff02191690556004820160009055600582016000905550508073ffffffffffffffffffffffffffffffffffffffff16847fbecb8a086d8073eca2912787e2e90fc1b495ef4033a31de33f551dc3932e0ba68460405161097a9190610fa1565b60405180910390a360003373ffffffffffffffffffffffffffffffffffffffff16836040516109a890611af5565b60006040518083038185875af1925050503d80600081146109e5576040519150601f19603f3d011682016040523d82523d6000602084013e6109ea565b606091505b5050905080610a2e576040517f08c379a0000000000000000000000000000000000000000000000000000000008152600401610a2590611b56565b60405180910390fd5b5050505050565b6000600160008381526020019081526020016000209050600073ffffffffffffffffffffffffffffffffffffffff168160000160009054906101000a900473ffffffffffffffffffffffffffffffffffffffff1673ffffffffffffffffffffffffffffffffffffffff1603610adf576040517f08c379a0000000000000000000000000000000000000000000000000000000008152600401610ad690611be8565b60405180910390fd5b80600501544210610b25576040517f08c379a0000000000000000000000000000000000000000000000000000000008152600401610b1c90611c54565b60405180910390fd5b8060000160009054906101000a900473ffffffffffffffffffffffffffffffffffffffff1673ffffffffffffffffffffffffffffffffffffffff163373ffffffffffffffffffffffffffffffffffffffff1603610bb7576040517f08c379a0000000000000000000000000000000000000000000000000000000008152600401610bae90611ce6565b60405180910390fd5b80600201543411610bfd576040517f08c379a0000000000000000000000000000000000000000000000000000000008152600401610bf490611d52565b60405180910390fd5b8060040154341015610c44576040517f08c379a0000000000000000000000000000000000000000000000000000000008152600401610c3b90611de4565b60405180910390fd5b600081600201541115610cd0578060020154600260008360030160009054906101000a900473ffffffffffffffffffffffffffffffffffffffff1673ffffffffffffffffffffffffffffffffffffffff1673ffffffffffffffffffffffffffffffffffffffff1681526020019081526020016000206000828254610cc89190611632565b925050819055505b348160020181905550338160030160006101000a81548173ffffffffffffffffffffffffffffffffffffffff021916908373ffffffffffffffffffffffffffffffffffffffff1602179055503373ffffffffffffffffffffffffffffffffffffffff16827f16bc95d3e0897c07b291b10bd6028ec659b9e8a925b81c9dace7da5649900a9c34604051610d639190610fa1565b60405180910390a35050565b600060606000806000806000600160008981526020019081526020016000206040518060c00160405290816000820160009054906101000a900473ffffffffffffffffffffffffffffffffffffffff1673ffffffffffffffffffffffffffffffffffffffff1673ffffffffffffffffffffffffffffffffffffffff168152602001600182018054610dff9061138e565b80601f0160208091040260200160405190810160405280929190818152602001828054610e2b9061138e565b8015610e785780601f10610e4d57610100808354040283529160200191610e78565b820191906000526020600020905b815481529060010190602001808311610e5b57829003601f168201915b50505050508152602001600282015481526020016003820160009054906101000a900473ffffffffffffffffffffffffffffffffffffffff1673ffffffffffffffffffffffffffffffffffffffff1673ffffffffffffffffffffffffffffffffffffffff168152602001600482015481526020016005820154815250509050806000015181602001518260400151836060015184608001518560a001519650965096509650965096505091939550919395565b508054610f379061138e565b6000825580601f10610f495750610f68565b601f016020900490600052602060002090810190610f679190610f6b565b5b50565b5b80821115610f84576000816000905550600101610f6c565b5090565b6000819050919050565b610f9b81610f88565b82525050565b6000602082019050610fb66000830184610f92565b92915050565b6000604051905090565b600080fd5b600080fd5b610fd981610f88565b8114610fe457600080fd5b50565b600081359050610ff681610fd0565b92915050565b60006020828403121561101257611011610fc6565b5b600061102084828501610fe7565b91505092915050565b600073ffffffffffffffffffffffffffffffffffffffff82169050919050565b600061105482611029565b9050919050565b61106481611049565b82525050565b600081519050919050565b600082825260208201905092915050565b60005b838110156110a4578082015181840152602081019050611089565b60008484015250505050565b6000601f19601f8301169050919050565b60006110cc8261106a565b6110d68185611075565b93506110e6818560208601611086565b6110ef816110b0565b840191505092915050565b600060c08201905061110f600083018961105b565b818103602083015261112181886110c1565b90506111306040830187610f92565b61113d606083018661105b565b61114a6080830185610f92565b61115760a0830184610f92565b979650505050505050565b61116b81611049565b811461117657600080fd5b50565b60008135905061118881611162565b92915050565b6000602082840312156111a4576111a3610fc6565b5b60006111b284828501611179565b91505092915050565b600080fd5b600080fd5b7f4e487b7100000000000000000000000000000000000000000000000000000000600052604160045260246000fd5b6111fd826110b0565b810181811067ffffffffffffffff8211171561121c5761121b6111c5565b5b80604052505050565b600061122f610fbc565b905061123b82826111f4565b919050565b600067ffffffffffffffff82111561125b5761125a6111c5565b5b611264826110b0565b9050602081019050919050565b82818337600083830152505050565b600061129361128e84611240565b611225565b9050828152602081018484840111156112af576112ae6111c0565b5b6112ba848285611271565b509392505050565b600082601f8301126112d7576112d66111bb565b5b81356112e7848260208601611280565b91505092915050565b60008060006060848603121561130957611308610fc6565b5b600084013567ffffffffffffffff81111561132757611326610fcb565b5b611333868287016112c2565b935050602061134486828701610fe7565b925050604061135586828701610fe7565b9150509250925092565b7f4e487b7100000000000000000000000000000000000000000000000000000000600052602260045260246000fd5b600060028204905060018216806113a657607f821691505b6020821081036113b9576113b861135f565b5b50919050565b7f4272616b2073726f646b6f7720646f207a77726f747500000000000000000000600082015250565b60006113f5601683611075565b9150611400826113bf565b602082019050919050565b60006020820190508181036000830152611424816113e8565b9050919050565b7f5472657363206e6965206d6f7a65206279632070757374610000000000000000600082015250565b6000611461601883611075565b915061146c8261142b565b602082019050919050565b6000602082019050818103600083015261149081611454565b9050919050565b7f4d696e696d616c6e61206b776f7461206d75736920627963207769656b737a6160008201527f206f642030000000000000000000000000000000000000000000000000000000602082015250565b60006114f3602583611075565b91506114fe82611497565b604082019050919050565b60006020820190508181036000830152611522816114e6565b9050919050565b7f437a617320747277616e6961206d7573692062796320646c757a737a79206e6960008201527f7a20300000000000000000000000000000000000000000000000000000000000602082015250565b6000611585602383611075565b915061159082611529565b604082019050919050565b600060208201905081810360008301526115b481611578565b9050919050565b7f4e487b7100000000000000000000000000000000000000000000000000000000600052601160045260246000fd5b60006115f582610f88565b91507fffffffffffffffffffffffffffffffffffffffffffffffffffffffffffffffff8203611627576116266115bb565b5b600182019050919050565b600061163d82610f88565b915061164883610f88565b92508282019050808211156116605761165f6115bb565b5b92915050565b60008190508160005260206000209050919050565b60006020601f8301049050919050565b600082821b905092915050565b6000600883026116c87fffffffffffffffffffffffffffffffffffffffffffffffffffffffffffffffff8261168b565b6116d2868361168b565b95508019841693508086168417925050509392505050565b6000819050919050565b600061170f61170a61170584610f88565b6116ea565b610f88565b9050919050565b6000819050919050565b611729836116f4565b61173d61173582611716565b848454611698565b825550505050565b600090565b611752611745565b61175d818484611720565b505050565b5b818110156117815761177660008261174a565b600181019050611763565b5050565b601f8211156117c65761179781611666565b6117a08461167b565b810160208510156117af578190505b6117c36117bb8561167b565b830182611762565b50505b505050565b600082821c905092915050565b60006117e9600019846008026117cb565b1980831691505092915050565b600061180283836117d8565b9150826002028217905092915050565b61181b8261106a565b67ffffffffffffffff811115611834576118336111c5565b5b61183e825461138e565b611849828285611785565b600060209050601f83116001811461187c576000841561186a578287015190505b61187485826117f6565b8655506118dc565b601f19841661188a86611666565b60005b828110156118b25784890151825560018201915060208501945060208101905061188d565b868310156118cf57848901516118cb601f8916826117d8565b8355505b6001600288020188555050505b505050505050565b600060408201905081810360008301526118fe81856110c1565b905061190d6020830184610f92565b9392505050565b7f41756b636a61206e6965206973746e69656a6500000000000000000000000000600082015250565b600061194a601383611075565b915061195582611914565b602082019050919050565b600060208201905081810360008301526119798161193d565b9050919050565b7f4e6965206a6573746573206175746f72656d0000000000000000000000000000600082015250565b60006119b6601283611075565b91506119c182611980565b602082019050919050565b600060208201905081810360008301526119e5816119a9565b9050919050565b7f41756b636a61206a65737a637a65207472776121000000000000000000000000600082015250565b6000611a22601483611075565b9150611a2d826119ec565b602082019050919050565b60006020820190508181036000830152611a5181611a15565b9050919050565b7f4272616b206f66657274202d206e6965206d6120636f207779706c6163616300600082015250565b6000611a8e601f83611075565b9150611a9982611a58565b602082019050919050565b60006020820190508181036000830152611abd81611a81565b9050919050565b600081905092915050565b50565b6000611adf600083611ac4565b9150611aea82611acf565b600082019050919050565b6000611b0082611ad2565b9150819050919050565b7f5779706c617461206e696520706f77696f646c61207369650000000000000000600082015250565b6000611b40601883611075565b9150611b4b82611b0a565b602082019050919050565b60006020820190508181036000830152611b6f81611b33565b9050919050565b7f41756b636a61206e6965206973746e69656a65206c7562207a616b6f6e637a6f60008201527f6e61000000000000000000000000000000000000000000000000000000000000602082015250565b6000611bd2602283611075565b9150611bdd82611b76565b604082019050919050565b60006020820190508181036000830152611c0181611bc5565b9050919050565b7f41756b636a61206a757a20736965207a616b6f6e637a796c6100000000000000600082015250565b6000611c3e601983611075565b9150611c4982611c08565b602082019050919050565b60006020820190508181036000830152611c6d81611c31565b9050919050565b7f4175746f72206f676c6f737a656e6961206e6965206d6f7a65206c696379746f60008201527f7761630000000000000000000000000000000000000000000000000000000000602082015250565b6000611cd0602383611075565b9150611cdb82611c74565b604082019050919050565b60006020820190508181036000830152611cff81611cc3565b9050919050565b7f5a61206d616c61206f6665727461000000000000000000000000000000000000600082015250565b6000611d3c600e83611075565b9150611d4782611d06565b602082019050919050565b60006020820190508181036000830152611d6b81611d2f565b9050919050565b7f4f6665727461206e6965207370656c6e6961206d696e696d616c6e656a206b7760008201527f6f74790000000000000000000000000000000000000000000000000000000000602082015250565b6000611dce602383611075565b9150611dd982611d72565b604082019050919050565b60006020820190508181036000830152611dfd81611dc1565b905091905056fea26469706673582212209f437f312c12d91b732e726f5a78fa2b84edafb3dfa448d0bc6fd404fff5255b64736f6c63430008130033",
  "linkReferences": {},
  "deployedLinkReferences": {}
}