{
  "_format": "hh-sol-artifact-1",
  "contractName": "TablicaAukcyjna",
  "sourceName": "contracts/TablicaAukcyjna.sol",
  "abi": [
    {
      "anonymous": false,
      "inputs": [
        {
          "indexed": true,
          "internalType": "uint256",
          "name": "id",
          "type": "uint256"
        },
        {
          "indexed": true,
          "internalType": "address",
          "name": "autor",
          "type": "address"
        },
        {
          "indexed": false,
          "internalType": "string",
          "name": "tresc",
          "type": "string"
        }
      ],
      "name": "DodanoOgloszenie",
      "type": "event"
    },
    {
      "anonymous": false,
      "inputs": [
        {
          "indexed": true,
          "internalType": "uint256",
          "name": "id",
          "type": "uint256"
        },
        {
          "indexed": true,
          "internalType": "address",
          "name": "licytant",
          "type": "address"
        },
        {
          "indexed": false,
          "internalType": "uint256",
          "name": "kwota",
          "type": "uint256"
        }
      ],
      "name": "NowaOferta",
      "type": "event"
    },
    {
      "inputs": [
        {
          "internalType": "string",
          "name": "tresc",
          "type": "string"
        }
      ],
      "name": "dodajOgloszenie",
      "outputs": [],
      "stateMutability": "nonpayable",
      "type": "function"
    },
    {
      "inputs": [],
      "name": "licznik",
      "outputs": [
        {
          "internalType": "uint256",
          "name": "",
          "type": "uint256"
        }
      ],
      "stateMutability": "view",
      "type": "function"
    },
    {
      "inputs": [
        {
          "internalType": "uint256",
          "name": "",
          "type": "uint256"
        }
      ],
      "name": "ogloszenia",
      "outputs": [
        {
          "internalType": "address",
          "name": "autor",
          "type": "address"
        },
        {
          "internalType": "string",
          "name": "tresc",
          "type": "string"
        },
        {
          "internalType": "uint256",
          "name": "highestBid",
          "type": "uint256"
        },
        {
          "internalType": "address",
          "name": "highestBidder",
          "type": "address"
        }
      ],
      "stateMutability": "view",
      "type": "function"
    },
    {
      "inputs": [
        {
          "internalType": "uint256",
          "name": "id",
          "type": "uint256"
        }
      ],
      "name": "pobierz",
      "outputs": [
        {
          "internalType": "address",
          "name": "autor",
          "type": "address"
        },
        {
          "internalType": "string",
          "name": "tresc",
          "type": "string"
        },
        {
          "internalType": "uint256",
          "name": "highestBid",
          "type": "uint256"
        },
        {
          "internalType": "address",
          "name": "highestBidder",
          "type": "address"
        }
      ],
      "stateMutability": "view",
      "type": "function"
    },
    {
      "inputs": [
        {
          "internalType": "uint256",
          "name": "id",
          "type": "uint256"
        }
      ],
      "name": "wyplacWygrana",
      "outputs": [],
      "stateMutability": "nonpayable",
      "type": "function"
    },
    {
      "inputs": [
        {
          "internalType": "uint256",
          "name": "id",
          "type": "uint256"
        }
      ],
      "name": "zalicytuj",
      "outputs": [],
      "stateMutability": "payable",
      "type": "function"
    }
  ],
  "bytecode": "0x608060405234801561001057600080fd5b506111ba806100206000396000f3fe6080604052600436106100545760003560e01c80627303a41461005957806301110f76146100845780639639341b146100c45780639d79a731146100ed578063c2cf60a414610109578063fd94465014610149575b600080fd5b34801561006557600080fd5b5061006e610172565b60405161007b91906108ce565b60405180910390f35b34801561009057600080fd5b506100ab60048036038101906100a69190610929565b610178565b6040516100bb9493929190610a27565b60405180910390f35b3480156100d057600080fd5b506100eb60048036038101906100e69190610929565b610270565b005b61010760048036038101906101029190610929565b610410565b005b34801561011557600080fd5b50610130600480360381019061012b9190610929565b61055d565b6040516101409493929190610a27565b60405180910390f35b34801561015557600080fd5b50610170600480360381019061016b9190610ba8565b6106f2565b005b60005481565b60016020528060005260406000206000915090508060000160009054906101000a900473ffffffffffffffffffffffffffffffffffffffff16908060010180546101c190610c20565b80601f01602080910402602001604051908101604052809291908181526020018280546101ed90610c20565b801561023a5780601f1061020f5761010080835404028352916020019161023a565b820191906000526020600020905b81548152906001019060200180831161021d57829003601f168201915b5050505050908060020154908060030160009054906101000a900473ffffffffffffffffffffffffffffffffffffffff16905084565b60008111801561028257506000548111155b6102c1576040517f08c379a00000000000000000000000000000000000000000000000000000000081526004016102b890610c9d565b60405180910390fd5b60006001600083815260200190815260200160002090508060000160009054906101000a900473ffffffffffffffffffffffffffffffffffffffff1673ffffffffffffffffffffffffffffffffffffffff163373ffffffffffffffffffffffffffffffffffffffff161461036a576040517f08c379a000000000000000000000000000000000000000000000000000000000815260040161036190610d09565b60405180910390fd5b60008160020154116103b1576040517f08c379a00000000000000000000000000000000000000000000000000000000081526004016103a890610d75565b60405180910390fd5b600081600201549050600082600201819055503373ffffffffffffffffffffffffffffffffffffffff166108fc829081150290604051600060405180830381858888f1935050505015801561040a573d6000803e3d6000fd5b50505050565b60008111801561042257506000548111155b610461576040517f08c379a000000000000000000000000000000000000000000000000000000000815260040161045890610c9d565b60405180910390fd5b6000600160008381526020019081526020016000209050806002015434116104be576040517f08c379a00000000000000000000000000000000000000000000000000000000081526004016104b590610de1565b60405180910390fd5b348160020181905550338160030160006101000a81548173ffffffffffffffffffffffffffffffffffffffff021916908373ffffffffffffffffffffffffffffffffffffffff1602179055503373ffffffffffffffffffffffffffffffffffffffff16827f16bc95d3e0897c07b291b10bd6028ec659b9e8a925b81c9dace7da5649900a9c3460405161055191906108ce565b60405180910390a35050565b600060606000806000600160008781526020019081526020016000206040518060800160405290816000820160009054906101000a900473ffffffffffffffffffffffffffffffffffffffff1673ffffffffffffffffffffffffffffffffffffffff1673ffffffffffffffffffffffffffffffffffffffff1681526020016001820180546105ea90610c20565b80601f016020809104026020016040519081016040528092919081815260200182805461061690610c20565b80156106635780601f1061063857610100808354040283529160200191610663565b820191906000526020600020905b81548152906001019060200180831161064657829003601f168201915b50505050508152602001600282015481526020016003820160009054906101000a900473ffffffffffffffffffffffffffffffffffffffff1673ffffffffffffffffffffffffffffffffffffffff1673ffffffffffffffffffffffffffffffffffffffff1681525050905080600001518160200151826040015183606001519450945094509450509193509193565b6000815111610736576040517f08c379a000000000000000000000000000000000000000000000000000000000815260040161072d90610e4d565b60405180910390fd5b60008081548092919061074890610e9c565b919050555060405180608001604052803373ffffffffffffffffffffffffffffffffffffffff16815260200182815260200160008152602001600073ffffffffffffffffffffffffffffffffffffffff16815250600160008054815260200190815260200160002060008201518160000160006101000a81548173ffffffffffffffffffffffffffffffffffffffff021916908373ffffffffffffffffffffffffffffffffffffffff160217905550602082015181600101908161080c9190611090565b506040820151816002015560608201518160030160006101000a81548173ffffffffffffffffffffffffffffffffffffffff021916908373ffffffffffffffffffffffffffffffffffffffff1602179055509050503373ffffffffffffffffffffffffffffffffffffffff166000547fec75b509003b8ef19c9bb0a247243ae80fe4320b538a5b41e955352ebbf29f22836040516108aa9190611162565b60405180910390a350565b6000819050919050565b6108c8816108b5565b82525050565b60006020820190506108e360008301846108bf565b92915050565b6000604051905090565b600080fd5b600080fd5b610906816108b5565b811461091157600080fd5b50565b600081359050610923816108fd565b92915050565b60006020828403121561093f5761093e6108f3565b5b600061094d84828501610914565b91505092915050565b600073ffffffffffffffffffffffffffffffffffffffff82169050919050565b600061098182610956565b9050919050565b61099181610976565b82525050565b600081519050919050565b600082825260208201905092915050565b60005b838110156109d15780820151818401526020810190506109b6565b60008484015250505050565b6000601f19601f8301169050919050565b60006109f982610997565b610a0381856109a2565b9350610a138185602086016109b3565b610a1c816109dd565b840191505092915050565b6000608082019050610a3c6000830187610988565b8181036020830152610a4e81866109ee565b9050610a5d60408301856108bf565b610a6a6060830184610988565b95945050505050565b600080fd5b600080fd5b7f4e487b7100000000000000000000000000000000000000000000000000000000600052604160045260246000fd5b610ab5826109dd565b810181811067ffffffffffffffff82111715610ad457610ad3610a7d565b5b80604052505050565b6000610ae76108e9565b9050610af38282610aac565b919050565b600067ffffffffffffffff821115610b1357610b12610a7d565b5b610b1c826109dd565b9050602081019050919050565b82818337600083830152505050565b6000610b4b610b4684610af8565b610add565b905082815260208101848484011115610b6757610b66610a78565b5b610b72848285610b29565b509392505050565b600082601f830112610b8f57610b8e610a73565b5b8135610b9f848260208601610b38565b91505092915050565b600060208284031215610bbe57610bbd6108f3565b5b600082013567ffffffffffffffff811115610bdc57610bdb6108f8565b5b610be884828501610b7a565b91505092915050565b7f4e487b7100000000000000000000000000000000000000000000000000000000600052602260045260246000fd5b60006002820490506001821680610c3857607f821691505b602082108103610c4b57610c4a610bf1565b5b50919050565b7f426c65646e792049440000000000000000000000000000000000000000000000600082015250565b6000610c876009836109a2565b9150610c9282610c51565b602082019050919050565b60006020820190508181036000830152610cb681610c7a565b9050919050565b7f4e6965206a6573746573206175746f72656d0000000000000000000000000000600082015250565b6000610cf36012836109a2565b9150610cfe82610cbd565b602082019050919050565b60006020820190508181036000830152610d2281610ce6565b9050919050565b7f4272616b2073726f646b6f7720646f207779706c617479000000000000000000600082015250565b6000610d5f6017836109a2565b9150610d6a82610d29565b602082019050919050565b60006020820190508181036000830152610d8e81610d52565b9050919050565b7f5a61206d616c61206f6665727461000000000000000000000000000000000000600082015250565b6000610dcb600e836109a2565b9150610dd682610d95565b602082019050919050565b60006020820190508181036000830152610dfa81610dbe565b9050919050565b7f5472657363206e6965206d6f7a65206279632070757374610000000000000000600082015250565b6000610e376018836109a2565b9150610e4282610e01565b602082019050919050565b60006020820190508181036000830152610e6681610e2a565b9050919050565b7f4e487b7100000000000000000000000000000000000000000000000000000000600052601160045260246000fd5b6000610ea7826108b5565b91507fffffffffffffffffffffffffffffffffffffffffffffffffffffffffffffffff8203610ed957610ed8610e6d565b5b600182019050919050565b60008190508160005260206000209050919050565b60006020601f8301049050919050565b600082821b905092915050565b600060088302610f467fffffffffffffffffffffffffffffffffffffffffffffffffffffffffffffffff82610f09565b610f508683610f09565b95508019841693508086168417925050509392505050565b6000819050919050565b6000610f8d610f88610f83846108b5565b610f68565b6108b5565b9050919050565b6000819050919050565b610fa783610f72565b610fbb610fb382610f94565b848454610f16565b825550505050565b600090565b610fd0610fc3565b610fdb818484610f9e565b505050565b5b81811015610fff57610ff4600082610fc8565b600181019050610fe1565b5050565b601f8211156110445761101581610ee4565b61101e84610ef9565b8101602085101561102d578190505b61104161103985610ef9565b830182610fe0565b50505b505050565b600082821c905092915050565b600061106760001984600802611049565b1980831691505092915050565b60006110808383611056565b9150826002028217905092915050565b61109982610997565b67ffffffffffffffff8111156110b2576110b1610a7d565b5b6110bc8254610c20565b6110c7828285611003565b600060209050601f8311600181146110fa57600084156110e8578287015190505b6110f28582611074565b86555061115a565b601f19841661110886610ee4565b60005b828110156111305784890151825560018201915060208501945060208101905061110b565b8683101561114d5784890151611149601f891682611056565b8355505b6001600288020188555050505b505050505050565b6000602082019050818103600083015261117c81846109ee565b90509291505056fea26469706673582212202c01cbd2052fb39b34ff4ca1f119f91d4948952b8fe83b26395598129f65423564736f6c63430008130033",
  "linkReferences": {},
  "deployedLinkReferences": {}
}